:020000040000FA
:06000000B4EF09F012004C
:0A0006000100BC13000060000000C0
:0400100041000000AB
:0C001400D9CFE6FFE1CFD9FFFE0EDBCF15
:10002000E6FF77EC09F0E5520A0EE66EC2EC09F045
:10003000E552DBEC09F0D6EC09F0000901E0FBD752
:100040000A0EE66EC2EC09F0E552CDEC09F000D0E4
:10005000E552E7CFD9FF1200D9CFE6FFE1CFD9FFB4
:10006000020EE12682800A0EE66EC2EC09F0E5522D
:1000700082840A0EE66EC2EC09F0E55282940A0E02
:10008000E66EC2EC09F0E5528290DF6A070EDF5C93
:1000900038E282840A0EE66EC2EC09F0E5528294E0
:1000A0000A0EE66EC2EC09F0E552870EE66EB2DF8C
:1000B000E552F3CF10F0F4CF11F0EA6ADF34FE0B13
:1000C000EA36E96E600EE926000EEA2210C0EEFF65
:1000D00011C0EDFF870EE66E9DDFE552F3CF10F005
:1000E000F4CF11F0EA6ADF34FE0BEA36E96E6E0EE9
:1000F000E926000EEA2210C0EEFF11C0EDFFDF2A54
:10010000C5D7020EE15C02E2E16AE552E16EE5521A
:10011000E7CFD9FF1200D9CFE6FFE1CFD9FFFB0E21
:10012000DBCF10F0FC0EDBCF11F0FD0EDBCF12F0B9
:10013000FE0EDBCF13F01050125C1150135803E287
:10014000F36AF46A13D0FD0EDBCF12F0FE0EDBCFA4
:1001500013F0FB0EDB50125C106EFC0EDB501358DC
:10016000116E10C0F3FF11C0F4FF00D0E552E7CFCD
:10017000D9FF1200D9CFE6FFE1CFD9FFD950FD0F4B
:10018000E96EFF0EDA20EA6EFF0ED880EE54000E04
:10019000ED5402E2FF0E03D0FD0EDB5000D0E5521D
:1001A000E7CFD9FF1200040105690A0E066F020E9F
:1001B000076F1200D9CFE6FFE1CFD9FF030EE1268A
:1001C0000701202B20512C0801E2206B010EDB6A75
:1001D0002C0EF36E010EDBCFF4FFF350F45C01E361
:1001E00090D0DF6A060EDF5C01E388D0010EDB50A1
:1001F000DF2407012025110DF350106E116A0D68E0
:100200000E6A10C008F011C009F033EC09F004C008
:1002100010F005C011F0020E10C0DBFFDB50030D23
:10022000F3CFF6FFF4CFF7FF660EF6260E0EF72299
:100230000800F550E66E010EDB50060DF3CF10F00E
:10024000F4CF11F0080E1026040E1122DF500F011A
:100250001024E96E000E1120EA6EE552E750EF6EB1
:10026000020EDB50030DF3CFF6FFF4CFF7FF660E5F
:10027000F6260E0EF722010EF626000EF7220800D3
:10028000F550E66E010EDB50060DF3CF10F0F4CF03
:1002900011F0100E1026050E1122DF501024E96E09
:1002A000000E1120EA6EE552E750EF6E020EDB50B1
:1002B000030DF3CFF6FFF4CFF7FF660EF6260E0E12
:1002C000F722020EF626000EF7220800F550E66E21
:1002D000010EDB50060DF3CF10F0F4CF11F0180E25
:1002E0001026060E1122DF501024E96E000E112098
:1002F000EA6EE552E750EF6EDF2A74D7010EDB2A73
:1003000067D7030EE15C02E2E16AE552E16EE55275
:10031000E7CFD9FF1200D9CFE6FFE1CFD9FF030E17
:10032000E126060EF36EFD0EDBCFF4FFF350F45C16
:1003300002E3000E4CD0FD0EDBCFE6FF050EE552CA
:10034000D880E754E76EFD0EE7CFDBFFFE0EDB4003
:10035000E840E8401F0BDF6E060EDF5C02E3000E94
:1003600036D0FE0EDBCFE6FFDF50080DF350E5522E
:10037000E75CE76E010EE7CFDBFFFD0EDB50060DFD
:10038000F3CF10F0F4CF11F07C0E1026000E1122E6
:10039000050ED880DF540F011024E96E000E1120E5
:1003A000EA6E020EEFCFDBFFDBCFE6FF010EF36E4E
:1003B000DB5004E0D890F336E806FCE1F350E55258
:1003C000E71403E1000E03D002D0010E00D0106E3E
:1003D000030EE15C02E2E16AE552E16E1050E55283
:1003E000E7CFD9FF1200D9CFE6FFE1CFD9FF020E48
:1003F000E126010EDB6A060EF36E010EDBCFF4FF81
:10040000F350F45C01E37FD0DF6A2C0EDF5C01E384
:1004100077D0010EDBCFE6FF050EE552D880E7541A
:10042000E66E2F0ED880DF54E66E75DFE552E5529A
:10043000FF0DF350E66EDF50060DF3CF10F0F4CF52
:1004400011F0080E1026040E1122010EDB500F01D0
:100450001024E96E000E1120EA6EE552E750EF6EAF
:10046000DF50060DF3CF12F0F4CF13F0080E122672
:10047000040E1322010EDB501224E96E000E13202D
:10048000EA6EEF50E66EDF50060DF3CF10F0F4CFBA
:1004900011F0100E1026050E1122010EDB50102453
:1004A000E96E000E1120EA6EE552E750EF6EDF5064
:1004B000060DF3CF12F0F4CF13F0080E1226040E3F
:1004C0001322010EDB501224E96E000E1320EA6E97
:1004D000EF50E66EDF50060DF3CF10F0F4CF11F0C1
:1004E000180E1026060E1122010EDB501024E96EA4
:1004F000000E1120EA6EE552E750EF6EDF2A85D735
:10050000010EDB2A78D7020EE15C02E2E16AE552D5
:10051000E16EE552E7CFD9FF1200D9CFE6FFE1CF78
:10052000D9FF050EE126110E070121272151106E7A
:10053000116A113404E21050FF08000E115401E258
:10054000216B0001A051010B01E109D1010EDB6A11
:10055000060EF36E010EDBCFF4FFF350F45C01E303
:10056000FDD0010EDB50EA6A080FE96E040EEA22A4
:10057000020EEFCFDBFF010EDB50EA6A100FE96ECF
:10058000050EEA22030EEFCFDBFF010EDB50EA6A15
:10059000180FE96E060EEA22040EEFCFDBFFDF6ACA
:1005A0002B0EDF5C01E3B9D0DF28060DF3CF12F08C
:1005B000F4CF13F0080E1226040E1322010EDB50A6
:1005C0000F011224E96E000E1320EA6EEF5010E0C6
:1005D00007012151030DF3CFF6FFF4CFF7FF660EAD
:1005E000F6260E0EF7220800F5407F0B0A0F01D009
:1005F000000EE66EDF50060DF3CF10F0F4CF11F0D1
:10060000080E1026040E1122010EDB500F011024DB
:10061000E96E000E1120EA6EE552E750EF6EDF281A
:10062000060DF3CF12F0F4CF13F0100E1226050EC4
:100630001322010EDB501224E96E000E1320EA6E25
:10064000EF5014E007012151030DF3CFF6FFF4CF73
:10065000F7FF660EF6260E0EF722010EF626000EA6
:10066000F7220800F5407F0B0A0F01D0000EE66E5E
:10067000DF50060DF3CF10F0F4CF11F0100E10265E
:10068000050E1122010EDB500F011024E96E000E41
:100690001120EA6EE552E750EF6EDF28060DF3CF2A
:1006A00012F0F4CF13F0180E1226060E1322010ECC
:1006B000DB501224E96E000E1320EA6EEF5014E0B6
:1006C00007012151030DF3CFF6FFF4CFF7FF660EBC
:1006D000F6260E0EF722020EF626000EF72208006E
:1006E000F5407F0B0A0F01D0000EE66EDF50060DBD
:1006F000F3CF10F0F4CF11F0180E1026060E1122D1
:10070000010EDB500F011024E96E000E1120EA6E7D
:10071000E552E750EF6EDF2A43D7010EDB50EA6A5D
:100720000A0FE96E050EEA22020EDBCFEFFF010E83
:10073000DB50EA6A120FE96E060EEA22030EDBCFE7
:10074000EFFF010EDB50EA6A1A0FE96E070EEA228C
:10075000040EDBCFEFFF010EDB2AFAD6CCD0010E60
:10076000DB6A060EF36E010EDBCFF4FFF350F45C90
:1007700001E3C1D0DF6A2C0EDF5C01E3B9D0DF50AA
:10078000060DF3CF12F0F4CF13F0080E1226040E6C
:100790001322010EDB500F011224E96E000E13200C
:1007A000EA6EEF5010E007012151030DF3CFF6FF81
:1007B000F4CFF7FF660EF6260E0EF7220800F5407E
:1007C0007F0B0A0F01D0000EE66EDF50060DF3CF4F
:1007D00010F0F4CF11F0080E1026040E1122010EB5
:1007E000DB500F011024E96E000E1120EA6EE55275
:1007F000E750EF6EDF50060DF3CF12F0F4CF13F099
:10080000100E1226050E1322010EDB501224E96E83
:10081000000E1320EA6EEF5014E007012151030D82
:10082000F3CFF6FFF4CFF7FF660EF6260E0EF72293
:10083000010EF626000EF7220800F5407F0B0A0F86
:1008400001D0000EE66EDF50060DF3CF10F0F4CFAE
:1008500011F0100E1026050E1122010EDB500F01B3
:100860001024E96E000E1120EA6EE552E750EF6E9B
:10087000DF50060DF3CF12F0F4CF13F0180E12264E
:10088000060E1322010EDB501224E96E000E132017
:10089000EA6EEF5014E007012151030DF3CFF6FF8C
:1008A000F4CFF7FF660EF6260E0EF722020EF6269E
:1008B000000EF7220800F5407F0B0A0F01D0000E52
:1008C000E66EDF50060DF3CF10F0F4CF11F0180EE6
:1008D0001026060E1122010EDB500F011024E96EC6
:1008E000000E1120EA6EE552E750EF6EDF2A43D783
:1008F000010EDB2A36D7050EE15C02E2E16AE55221
:10090000E16EE552E7CFD9FF1200D9CFE6FFE1CF84
:10091000D9FF030EE1260701222B22512C0801E208
:10092000226B010EDB6A2C0EF36E010EDBCFF4FF9F
:10093000F350F45C01E390D0DF6A060EDF5C01E364
:1009400088D0010EDB50DF2407012225110DF35062
:10095000106E116A0D680E6A10C008F011C009F01F
:1009600033EC09F004C010F005C011F0020E10C005
:10097000DBFFDB50030DF3CFF6FFF4CFF7FF660E7E
:10098000F6260E0EF7220800F550E66E010EDB503B
:10099000060DF3CF10F0F4CF11F0080E1026040E60
:1009A0001122DF500F011024E96E000E1120EA6EB3
:1009B000E552E750EF6E020EDB50030DF3CFF6FF6A
:1009C000F4CFF7FF660EF6260E0EF722010EF6267E
:1009D000000EF7220800F550E66E010EDB50060D02
:1009E000F3CF10F0F4CF11F0100E1026050E1122E7
:1009F000DF501024E96E000E1120EA6EE552E75038
:100A0000EF6E020EDB50030DF3CFF6FFF4CFF7FFCE
:100A1000660EF6260E0EF722020EF626000EF722BE
:100A20000800F550E66E010EDB50060DF3CF10F016
:100A3000F4CF11F0180E1026060E1122DF501024EC
:100A4000E96E000E1120EA6EE552E750EF6EDF2AE4
:100A500074D7010EDB2A67D7030EE15C02E2E16A7C
:100A6000E552E16EE552E7CFD9FF1200D9CFE6FF9C
:100A7000E1CFD9FFFE0EDB50060DF3CFE9FFF4CF37
:100A8000EAFF080EE926040EEA22030EE926000E0C
:100A9000EA22EF50E66E59EC09F0E552FE0EDB500B
:100AA000060DF3CFE9FFF4CFEAFF100EE926050E9D
:100AB000EA22030EE926000EEA22EF50E66E59EC18
:100AC00009F0E552FE0EDB50060DF3CFE9FFF4CF3F
:100AD000EAFF180EE926060EEA22030EE926000EAA
:100AE000EA22EF50E66E59EC09F0E552FE0EDB50BB
:100AF000060DF3CFE9FFF4CFEAFF080EE926040E56
:100B0000EA22040EE926000EEA22EF50E66E59ECC6
:100B100009F0E552FE0EDB50060DF3CFE9FFF4CFEE
:100B2000EAFF100EE926050EEA22040EE926000E61
:100B3000EA22EF50E66E59EC09F0E552FE0EDB506A
:100B4000060DF3CFE9FFF4CFEAFF180EE926060EF3
:100B5000EA22050EE926000EEA22EF50E66E59EC75
:100B600009F0E552FE0EDB50060DF3CFE9FFF4CF9E
:100B7000EAFF100EE926050EEA22050EE926000E10
:100B8000EA22EF50E66E59EC09F0E552FE0EDB501A
:100B9000060DF3CFE9FFF4CFEAFF080EE926040EB5
:100BA000EA22050EE926000EEA22EF50E66E59EC25
:100BB00009F0E552FE0EDB50060DF3CFE9FFF4CF4E
:100BC000EAFF180EE926060EEA22040EE926000EB8
:100BD000EA22EF50E66E59EC09F0E552FE0EDB50CA
:100BE000060DF3CFE9FFF4CFEAFF180EE926060E53
:100BF000EA22020EE926000EEA22EF50E66E59ECD8
:100C000009F0E552FE0EDB50060DF3CFE9FFF4CFFD
:100C1000EAFF100EE926050EEA22020EE926000E72
:100C2000EA22EF50E66E59EC09F0E552FE0EDB5079
:100C3000060DF3CFE9FFF4CFEAFF080EE926040E14
:100C4000EA22020EE926000EEA22EF50E66E59EC87
:100C500009F0E552FE0EDB50060DF3CFE9FFF4CFAD
:100C6000EAFF180EE926060EEA22010EE926000E1A
:100C7000EA22EF50E66E59EC09F0E552FE0EDB5029
:100C8000060DF3CFE9FFF4CFEAFF100EE926050EBB
:100C9000EA22010EE926000EEA22EF50E66E59EC38
:100CA00009F0E552FE0EDB50060DF3CFE9FFF4CF5D
:100CB000EAFF080EE926040EEA22010EE926000EDC
:100CC000EA22EF50E66E59EC09F0E552FE0EDB50D9
:100CD000060DF3CFE9FFF4CFEAFF180EE926060E62
:100CE000EA22EF50E66E59EC09F0E552FE0EDB50B9
:100CF000060DF3CFE9FFF4CFEAFF100EE926050E4B
:100D0000EA22EF50E66E59EC09F0E552FE0EDB5098
:100D1000060DF3CFE9FFF4CFEAFF080EE926040E33
:100D2000EA22EF50E66E59EC09F0E552E552E7CFC2
:100D3000D9FF1200D9CFE6FFE1CFD9FF0D0EE12692
:100D4000870EF36E090EF3CFDBFF130EF36E0A0E60
:100D5000F3CFDBFF0B0EDB6A0C0EDB6A966A956A3B
:100D6000946A936A1F0E926E836A826A816A806EA9
:100D7000846A0F0E9B6E720ED36E800EE66EE66A6C
:100D8000E66A01EC09F0E552E552E552D950090F47
:100D9000E96EDACFEAFFEE2A000EEE22EE22EE2214
:100DA000D950090FE96EDACFEAFF880EEE1806E196
:100DB000130EEE1803E1EE5001E1EE5003E1F3EC07
:100DC00001F02AD0D950090FE96EDACFEAFFD880B6
:100DD000880EEE54130EEE54000EEE54000EEE5438
:100DE0001AE28DEC02F0D950090FE96EDACFEAFF72
:100DF000D880100EEE54270EEE54000EEE54000E66
:100E0000EE5408E2090EDB6A0A0EDB6A0B0EDB6A9F
:100E10000C0EDB6A01D079DD070EDB6A080EDB6A97
:100E2000070EDBCF10F0080EDBCF11F02C0E105C9C
:100E3000000E11580BE2070EDBCFE6FF17DEE5527E
:100E4000070EDB2A080E01E3DB2AEAD782928282B0
:100E50009DD70D0EE15C02E2E16AE552E16EE552DA
:060E6000E7CFD9FF1200EC
:0A0E660000FF0003FC0006F900097C
:100E7000F6000CF3000FF00012ED0015EA0018E781
:100E8000001BE4001EE10021DE0024DB0027D80067
:100E90002AD5002DD20030CF0033CC0036C900391E
:100EA000C6003CC3003FC00042BD0045BA0048B781
:100EB000004BB4004EB10051AE0054AB0057A80037
:100EC0005AA5005DA200609F00639C0066990069BE
:100ED00096006C93006F9000728D00758A00788781
:100EE000007B84007E8100817E00847B0087780007
:100EF0008A75008D7200906F00936C00966900995E
:100F000066009C63009F6000A25D00A55A00A85780
:100F100000AB5400AE5100B14E00B44B00B74800D6
:100F2000BA4500BD4200C03F00C33C00C63900C9FD
:100F30003600CC3300CF3000D22D00D52A00D82780
:100F400000DB2400DE2100E11E00E41B00E71800A6
:100F5000EA1500ED1200F00F00F30C00F60900F99D
:100F60000600FC0300FF0000FC0003F90006F60089
:100F700009F3000CF0000FED0012EA0015E700186D
:100F8000E4001BE1001EDE0021DB0024D80027D591
:100F9000002AD2002DCF0030CC0033C90036C60065
:100FA00039C3003CC0003FBD0042BA0045B700480D
:100FB000B4004BB1004EAE0051AB0054A80057A591
:100FC000005AA2005D9F00609C0063990066960035
:100FD0006993006C90006F8D00728A0075870078AD
:100FE00084007B81007E7E00817B00847800877591
:100FF000008A72008D6F00906C0093690096660005
:101000009963009C60009F5D00A25A00A55700A84C
:101010005400AB5100AE4E00B14B00B44800B74590
:1010200000BA4200BD3F00C03C00C33900C63600D4
:10103000C93300CC3000CF2D00D22A00D52700D8EC
:101040002400DB2100DE1E00E11B00E41800E71590
:1010500000EA1200ED0F00F00C00F30900F60600A4
:10106000F90300FC0000FF0003FC0006F90009F68C
:10107000000CF3000FF00012ED0015EA0018E70075
:101080001BE4001EE10021DE0024DB0027D8002A3B
:10109000D5002DD20030CF0033CC0036C90039C680
:1010A000003CC3003FC00042BD0045BA0048B70045
:1010B0004BB4004EB10051AE0054AB0057A8005ADB
:1010C000A5005DA200609F00639C00669900699680
:1010D000006C93006F9000728D00758A0078870015
:1010E0007B84007E8100817E00847B008778008A7B
:1010F00075008D7200906F00936C00966900996680
:10110000009C63009F6000A25D00A55A00A85700E4
:10111000AB5400AE5100B14E00B44B00B74800BA1A
:101120004500BD4200C03F00C33C00C63900C9367F
:1011300000CC3300CF3000D22D00D52A00D82700B4
:10114000DB2400DE2100E11E00E41B00E71800EABA
:101150001500ED1200F00F00F30C00F60900F9067F
:0311600000FC038D
:0C116400060EF66E000EF76E000EF86E20
:1011700000010900F550A66F0900F550A76F03E1C3
:10118000A66701D03DD00900F550A16F0900F550C8
:10119000A26F0900F550A36F09000900F550E96E30
:1011A0000900F550EA6E090009000900F550A46F26
:1011B0000900F550A56F09000900F6CFA8F0F7CF98
:1011C000A9F0F8CFAAF0A1C0F6FFA2C0F7FFA3C014
:1011D000F8FF0001A45302E1A55307E00900F55010
:1011E000EE6EA407F8E2A507F9D7A8C0F6FFA9C0DC
:1011F000F7FFAAC0F8FF0001A607000EA75BBFD744
:021200001200DA
:0E120200D9CFE6FFDACFE6FFE1CFD9FFE2CF8A
:10121000DAFF3F0EC716C66AFD0EDB50C612FB0E84
:10122000DB50C712FC0EDB50030A09E0010A04E0A0
:10123000020A06E1C78C04D0C78CC68801D0C688D4
:10124000FD0EDB50050A03E0010A03E1928A938256
:1012500001D093929380949EC68AE552E5CFDAFF3F
:06126000E7CFD9FF1200E8
:0A126600006A0EAE3CEF09F00D6CBB
:101270000E1EE86A0E22001E09AE44EF09F0086C4B
:10128000091EE86A0922001E8EEC09F009BE54EF1F
:1012900009F000AE000C086C091EE86A0922046C13
:1012A000051EE86A0522000C00BE4BEF09F001881C
:0212B000FF0C31
:0E12B200D9CFE6FFDACFE6FFE1CFD9FFE2CFDA
:1012C000DAFFE652C950DF6E9E96C69EFD0EDB50D9
:1012D000C96EC6AE02D0FF0E03D09EA6FED7000E8A
:0E12E000E552E552E5CFDAFFE7CFD9FF120065
:0212EE00D9CF56
:1012F000E6FFDACFE6FFE1CFD9FFE2CFDAFFC30E98
:10130000C214106EFD0EDB407F0B3C0B1010C26E42
:0C131000E552E5CFDAFFE7CFD9FF12006D
:04131C00056A046AF0
:10132000100EE76ED89008360936043605360D5093
:10133000045C0E50055805E30D50045E0E50055A2E
:08134000082AE72EF0D7120085
:08134800000EF36E00EE00F050
:10135000080E01D81200EA6002D0EE6AFCD7F35002
:08136000E9601200EE6AFCD7FF
:0813680013EE00F023EE00F08B
:10137000F86A019CB2EC08F0DDEC09F09AEC06F09A
:04138000FBD7120085
:0C138400FF0EE350E84E1200000000D005
:0A13900000D000D0E82EFAD71200BA
:06139A00C450136E126A3C
:0C13A000C3501210F36E13C0F4FF1200D3
:0413AC00C250020B1E
:0613B00001E0010E120035
:0413B600C2821200DD
:0213BA0012001F
:0413BC000000140019
:1013C00028003C0050006400780078006400500061
:1013D0003C00280014000000F043C7C4400088A26D
:1013E00021044000891221028000F1F3C1010000B4
:0D13F0008112810100008112410100000105
:020000040030CA
:0100010008F6
:010003001EDE
:010005008377
:010006008178
:00000001FF
